{
  "contractName": "WhitelistContract",
  "abi": [
    {
      "anonymous": false,
      "inputs": [
        {
          "indexed": true,
          "internalType": "address",
          "name": "previousOwner",
          "type": "address"
        },
        {
          "indexed": true,
          "internalType": "address",
          "name": "newOwner",
          "type": "address"
        }
      ],
      "name": "OwnershipTransferred",
      "type": "event"
    },
    {
      "inputs": [],
      "name": "owner",
      "outputs": [
        {
          "internalType": "address",
          "name": "",
          "type": "address"
        }
      ],
      "stateMutability": "view",
      "type": "function",
      "constant": true
    },
    {
      "inputs": [],
      "name": "renounceOwnership",
      "outputs": [],
      "stateMutability": "nonpayable",
      "type": "function"
    },
    {
      "inputs": [
        {
          "internalType": "address",
          "name": "newOwner",
          "type": "address"
        }
      ],
      "name": "transferOwnership",
      "outputs": [],
      "stateMutability": "nonpayable",
      "type": "function"
    },
    {
      "inputs": [
        {
          "internalType": "address",
          "name": "_addr",
          "type": "address"
        }
      ],
      "name": "addToWhitelist",
      "outputs": [],
      "stateMutability": "nonpayable",
      "type": "function"
    },
    {
      "inputs": [
        {
          "internalType": "address",
          "name": "_addr",
          "type": "address"
        }
      ],
      "name": "removeFromeWhitelist",
      "outputs": [],
      "stateMutability": "nonpayable",
      "type": "function"
    },
    {
      "inputs": [
        {
          "internalType": "address",
          "name": "_addr",
          "type": "address"
        }
      ],
      "name": "isWhitelisted",
      "outputs": [
        {
          "internalType": "bool",
          "name": "",
          "type": "bool"
        }
      ],
      "stateMutability": "view",
      "type": "function",
      "constant": true
    }
  ],
  "bytecode": "0x608060405234801561001057600080fd5b5061002d61002261003260201b60201c565b61003a60201b60201c565b6100fe565b600033905090565b60008060009054906101000a900473ffffffffffffffffffffffffffffffffffffffff169050816000806101000a81548173ffffffffffffffffffffffffffffffffffffffff021916908373ffffffffffffffffffffffffffffffffffffffff1602179055508173ffffffffffffffffffffffffffffffffffffffff168173ffffffffffffffffffffffffffffffffffffffff167f8be0079c531659141344cd1fd0a4f28419497f9722a3daafe3b4186f6b6457e060405160405180910390a35050565b6108dd8061010d6000396000f3fe608060405234801561001057600080fd5b50600436106100625760003560e01c80633af32abf14610067578063715018a6146100975780637d44d45f146100a15780638da5cb5b146100bd578063e43252d7146100db578063f2fde38b146100f7575b600080fd5b610081600480360381019061007c9190610634565b610113565b60405161008e91906106ff565b60405180910390f35b61009f610169565b005b6100bb60048036038101906100b69190610634565b6101f1565b005b6100c56102c8565b6040516100d291906106e4565b60405180910390f35b6100f560048036038101906100f09190610634565b6102f1565b005b610111600480360381019061010c9190610634565b61045b565b005b6000600160008373ffffffffffffffffffffffffffffffffffffffff1673ffffffffffffffffffffffffffffffffffffffff16815260200190815260200160002060009054906101000a900460ff169050919050565b610171610553565b73ffffffffffffffffffffffffffffffffffffffff1661018f6102c8565b73ffffffffffffffffffffffffffffffffffffffff16146101e5576040517f08c379a00000000000000000000000000000000000000000000000000000000081526004016101dc9061075a565b60405180910390fd5b6101ef600061055b565b565b6101f9610553565b73ffffffffffffffffffffffffffffffffffffffff166102176102c8565b73ffffffffffffffffffffffffffffffffffffffff161461026d576040517f08c379a00000000000000000000000000000000000000000000000000000000081526004016102649061075a565b60405180910390fd5b6000600160008373ffffffffffffffffffffffffffffffffffffffff1673ffffffffffffffffffffffffffffffffffffffff16815260200190815260200160002060006101000a81548160ff02191690831515021790555050565b60008060009054906101000a900473ffffffffffffffffffffffffffffffffffffffff16905090565b6102f9610553565b73ffffffffffffffffffffffffffffffffffffffff166103176102c8565b73ffffffffffffffffffffffffffffffffffffffff161461036d576040517f08c379a00000000000000000000000000000000000000000000000000000000081526004016103649061075a565b60405180910390fd5b60011515600160008373ffffffffffffffffffffffffffffffffffffffff1673ffffffffffffffffffffffffffffffffffffffff16815260200190815260200160002060009054906101000a900460ff1615151415610401576040517f08c379a00000000000000000000000000000000000000000000000000000000081526004016103f89061073a565b60405180910390fd5b60018060008373ffffffffffffffffffffffffffffffffffffffff1673ffffffffffffffffffffffffffffffffffffffff16815260200190815260200160002060006101000a81548160ff02191690831515021790555050565b610463610553565b73ffffffffffffffffffffffffffffffffffffffff166104816102c8565b73ffffffffffffffffffffffffffffffffffffffff16146104d7576040517f08c379a00000000000000000000000000000000000000000000000000000000081526004016104ce9061075a565b60405180910390fd5b600073ffffffffffffffffffffffffffffffffffffffff168173ffffffffffffffffffffffffffffffffffffffff161415610547576040517f08c379a000000000000000000000000000000000000000000000000000000000815260040161053e9061071a565b60405180910390fd5b6105508161055b565b50565b600033905090565b60008060009054906101000a900473ffffffffffffffffffffffffffffffffffffffff169050816000806101000a81548173ffffffffffffffffffffffffffffffffffffffff021916908373ffffffffffffffffffffffffffffffffffffffff1602179055508173ffffffffffffffffffffffffffffffffffffffff168173ffffffffffffffffffffffffffffffffffffffff167f8be0079c531659141344cd1fd0a4f28419497f9722a3daafe3b4186f6b6457e060405160405180910390a35050565b60008135905061062e81610890565b92915050565b60006020828403121561064657600080fd5b60006106548482850161061f565b91505092915050565b6106668161078b565b82525050565b6106758161079d565b82525050565b600061068860268361077a565b9150610693826107c9565b604082019050919050565b60006106ab60238361077a565b91506106b682610818565b604082019050919050565b60006106ce60208361077a565b91506106d982610867565b602082019050919050565b60006020820190506106f9600083018461065d565b92915050565b6000602082019050610714600083018461066c565b92915050565b600060208201905081810360008301526107338161067b565b9050919050565b600060208201905081810360008301526107538161069e565b9050919050565b60006020820190508181036000830152610773816106c1565b9050919050565b600082825260208201905092915050565b6000610796826107a9565b9050919050565b60008115159050919050565b600073ffffffffffffffffffffffffffffffffffffffff82169050919050565b7f4f776e61626c653a206e6577206f776e657220697320746865207a65726f206160008201527f6464726573730000000000000000000000000000000000000000000000000000602082015250565b7f5573657220697320616c726561647920616464656420746f2077686974656c6960008201527f7374210000000000000000000000000000000000000000000000000000000000602082015250565b7f4f776e61626c653a2063616c6c6572206973206e6f7420746865206f776e6572600082015250565b6108998161078b565b81146108a457600080fd5b5056fea264697066735822122071c9c79570f06350ac0379a95a656b0ad697784d14286f25c70399132728146e64736f6c63430008010033",
  "immutableReferences": {},
  "source": "// SPDX-License-Identifier: MIT\npragma solidity ^0.8.0;\nimport \"@openzeppelin/contracts/access/Ownable.sol\";\n\ncontract WhitelistContract is Ownable {\n  mapping(address => bool) whitelist;\n\n  function addToWhitelist(address _addr) public onlyOwner {\n    require(whitelist[_addr] != true, \"User is already added to whitelist!\");\n    whitelist[_addr] = true;\n  }\n\n  function removeFromeWhitelist(address _addr) public onlyOwner {\n    whitelist[_addr] = false;\n  }\n\n  function isWhitelisted(address _addr) public view returns(bool) {\n    return whitelist[_addr];\n  }\n}",
  "sourcePath": "/Users/hieunguyen/Documents/Blockchain/Solidity/DatingContract/contracts/WhitelistContract.sol",
  "compiler": {
    "name": "solc",
    "version": "0.8.1+commit.df193b15.Emscripten.clang"
  },
  "schemaVersion": "3.4.6",
  "updatedAt": "2022-03-28T08:14:22.055Z",
  "networkType": "ethereum",
  "devdoc": {
    "kind": "dev",
    "methods": {
      "owner()": {
        "details": "Returns the address of the current owner."
      },
      "renounceOwnership()": {
        "details": "Leaves the contract without owner. It will not be possible to call `onlyOwner` functions anymore. Can only be called by the current owner. NOTE: Renouncing ownership will leave the contract without an owner, thereby removing any functionality that is only available to the owner."
      },
      "transferOwnership(address)": {
        "details": "Transfers ownership of the contract to a new account (`newOwner`). Can only be called by the current owner."
      }
    },
    "version": 1
  },
  "userdoc": {
    "kind": "user",
    "methods": {},
    "version": 1
  }
}